{
  "contractName": "TRC20",
  "abi": [
    {
      "inputs": [
        {
          "internalType": "string",
          "name": "name_",
          "type": "string"
        },
        {
          "internalType": "string",
          "name": "symbol_",
          "type": "string"
        },
        {
          "internalType": "uint8",
          "name": "decimals_",
          "type": "uint8"
        }
      ],
      "stateMutability": "nonpayable",
      "type": "constructor"
    },
    {
      "inputs": [
        {
          "internalType": "address",
          "name": "spender",
          "type": "address"
        },
        {
          "internalType": "uint256",
          "name": "allowance",
          "type": "uint256"
        },
        {
          "internalType": "uint256",
          "name": "needed",
          "type": "uint256"
        }
      ],
      "name": "TRC20InsufficientAllowance",
      "type": "error"
    },
    {
      "inputs": [
        {
          "internalType": "address",
          "name": "sender",
          "type": "address"
        },
        {
          "internalType": "uint256",
          "name": "balance",
          "type": "uint256"
        },
        {
          "internalType": "uint256",
          "name": "needed",
          "type": "uint256"
        }
      ],
      "name": "TRC20InsufficientBalance",
      "type": "error"
    },
    {
      "inputs": [
        {
          "internalType": "address",
          "name": "approver",
          "type": "address"
        }
      ],
      "name": "TRC20InvalidApprover",
      "type": "error"
    },
    {
      "inputs": [
        {
          "internalType": "address",
          "name": "receiver",
          "type": "address"
        }
      ],
      "name": "TRC20InvalidReceiver",
      "type": "error"
    },
    {
      "inputs": [
        {
          "internalType": "address",
          "name": "sender",
          "type": "address"
        }
      ],
      "name": "TRC20InvalidSender",
      "type": "error"
    },
    {
      "inputs": [
        {
          "internalType": "address",
          "name": "spender",
          "type": "address"
        }
      ],
      "name": "TRC20InvalidSpender",
      "type": "error"
    },
    {
      "anonymous": false,
      "inputs": [
        {
          "indexed": true,
          "internalType": "address",
          "name": "owner",
          "type": "address"
        },
        {
          "indexed": true,
          "internalType": "address",
          "name": "spender",
          "type": "address"
        },
        {
          "indexed": false,
          "internalType": "uint256",
          "name": "value",
          "type": "uint256"
        }
      ],
      "name": "Approval",
      "type": "event"
    },
    {
      "anonymous": false,
      "inputs": [
        {
          "indexed": true,
          "internalType": "address",
          "name": "oldOwner",
          "type": "address"
        },
        {
          "indexed": true,
          "internalType": "address",
          "name": "newOwner",
          "type": "address"
        }
      ],
      "name": "OwnerSet",
      "type": "event"
    },
    {
      "anonymous": false,
      "inputs": [
        {
          "indexed": true,
          "internalType": "address",
          "name": "from",
          "type": "address"
        },
        {
          "indexed": true,
          "internalType": "address",
          "name": "to",
          "type": "address"
        },
        {
          "indexed": false,
          "internalType": "uint256",
          "name": "value",
          "type": "uint256"
        }
      ],
      "name": "Transfer",
      "type": "event"
    },
    {
      "inputs": [
        {
          "internalType": "address",
          "name": "owner_",
          "type": "address"
        },
        {
          "internalType": "address",
          "name": "spender",
          "type": "address"
        }
      ],
      "name": "allowance",
      "outputs": [
        {
          "internalType": "uint256",
          "name": "",
          "type": "uint256"
        }
      ],
      "stateMutability": "view",
      "type": "function"
    },
    {
      "inputs": [
        {
          "internalType": "address",
          "name": "spender",
          "type": "address"
        },
        {
          "internalType": "uint256",
          "name": "amount",
          "type": "uint256"
        }
      ],
      "name": "approve",
      "outputs": [
        {
          "internalType": "bool",
          "name": "",
          "type": "bool"
        }
      ],
      "stateMutability": "nonpayable",
      "type": "function"
    },
    {
      "inputs": [
        {
          "internalType": "address",
          "name": "account",
          "type": "address"
        }
      ],
      "name": "balanceOf",
      "outputs": [
        {
          "internalType": "uint256",
          "name": "",
          "type": "uint256"
        }
      ],
      "stateMutability": "view",
      "type": "function"
    },
    {
      "inputs": [
        {
          "internalType": "address",
          "name": "newOwner",
          "type": "address"
        }
      ],
      "name": "changeOwner",
      "outputs": [],
      "stateMutability": "nonpayable",
      "type": "function"
    },
    {
      "inputs": [],
      "name": "decimals",
      "outputs": [
        {
          "internalType": "uint8",
          "name": "",
          "type": "uint8"
        }
      ],
      "stateMutability": "view",
      "type": "function"
    },
    {
      "inputs": [],
      "name": "getOwner",
      "outputs": [
        {
          "internalType": "address",
          "name": "",
          "type": "address"
        }
      ],
      "stateMutability": "view",
      "type": "function"
    },
    {
      "inputs": [],
      "name": "name",
      "outputs": [
        {
          "internalType": "string",
          "name": "",
          "type": "string"
        }
      ],
      "stateMutability": "view",
      "type": "function"
    },
    {
      "inputs": [],
      "name": "symbol",
      "outputs": [
        {
          "internalType": "string",
          "name": "",
          "type": "string"
        }
      ],
      "stateMutability": "view",
      "type": "function"
    },
    {
      "inputs": [],
      "name": "totalSupply",
      "outputs": [
        {
          "internalType": "uint256",
          "name": "",
          "type": "uint256"
        }
      ],
      "stateMutability": "view",
      "type": "function"
    },
    {
      "inputs": [
        {
          "internalType": "address",
          "name": "recipient",
          "type": "address"
        },
        {
          "internalType": "uint256",
          "name": "amount",
          "type": "uint256"
        }
      ],
      "name": "transfer",
      "outputs": [
        {
          "internalType": "bool",
          "name": "",
          "type": "bool"
        }
      ],
      "stateMutability": "nonpayable",
      "type": "function"
    },
    {
      "inputs": [
        {
          "internalType": "address",
          "name": "from",
          "type": "address"
        },
        {
          "internalType": "address",
          "name": "to",
          "type": "address"
        },
        {
          "internalType": "uint256",
          "name": "value",
          "type": "uint256"
        }
      ],
      "name": "transferFrom",
      "outputs": [
        {
          "internalType": "bool",
          "name": "",
          "type": "bool"
        }
      ],
      "stateMutability": "nonpayable",
      "type": "function"
    }
  ],
  "bytecode": "0x608060405234801562000010575f80fd5b5060405162000b8838038062000b8883398101604081905262000033916200016a565b5f80546001600160a01b0319163390811782556040519091907f342827c97908e5e2f71151c08502a66d44b6f758e3ac2f1de95f02eb95f0a735908290a360046200007f848262000275565b5060056200008e838262000275565b506006805460ff191660ff92909216919091179055506200033d9050565b634e487b7160e01b5f52604160045260245ffd5b5f82601f830112620000d0575f80fd5b81516001600160401b0380821115620000ed57620000ed620000ac565b604051601f8301601f19908116603f01168101908282118183101715620001185762000118620000ac565b8160405283815260209250868385880101111562000134575f80fd5b5f91505b8382101562000157578582018301518183018401529082019062000138565b5f93810190920192909252949350505050565b5f805f606084860312156200017d575f80fd5b83516001600160401b038082111562000194575f80fd5b620001a287838801620000c0565b94506020860151915080821115620001b8575f80fd5b50620001c786828701620000c0565b925050604084015160ff81168114620001de575f80fd5b809150509250925092565b600181811c90821680620001fe57607f821691505b6020821081036200021d57634e487b7160e01b5f52602260045260245ffd5b50919050565b601f82111562000270575f81815260208120601f850160051c810160208610156200024b5750805b601f850160051c820191505b818110156200026c5782815560010162000257565b5050505b505050565b81516001600160401b03811115620002915762000291620000ac565b620002a981620002a28454620001e9565b8462000223565b602080601f831160018114620002df575f8415620002c75750858301515b5f19600386901b1c1916600185901b1785556200026c565b5f85815260208120601f198616915b828110156200030f57888601518255948401946001909101908401620002ee565b50858210156200032d57878501515f19600388901b60f8161c191681555b5050505050600190811b01905550565b61083d806200034b5f395ff3fe608060405234801561000f575f80fd5b50600436106100a6575f3560e01c806370a082311161006e57806370a0823114610125578063893d20e81461014d57806395d89b4114610167578063a6f9dae11461016f578063a9059cbb14610184578063dd62ed3e14610197575f80fd5b806306fdde03146100aa578063095ea7b3146100c857806318160ddd146100eb57806323b872dd146100fd578063313ce56714610110575b5f80fd5b6100b26101cf565b6040516100bf9190610698565b60405180910390f35b6100db6100d63660046106fe565b61025f565b60405190151581526020016100bf565b6003545b6040519081526020016100bf565b6100db61010b366004610726565b610275565b60065460405160ff90911681526020016100bf565b6100ef61013336600461075f565b6001600160a01b03165f9081526001602052604090205490565b5f546040516001600160a01b0390911681526020016100bf565b6100b2610298565b61018261017d36600461075f565b6102a7565b005b6100db6101923660046106fe565b6103aa565b6100ef6101a536600461077f565b6001600160a01b039182165f90815260026020908152604080832093909416825291909152205490565b6060600480546101de906107b0565b80601f016020809104026020016040519081016040528092919081815260200182805461020a906107b0565b80156102555780601f1061022c57610100808354040283529160200191610255565b820191905f5260205f20905b81548152906001019060200180831161023857829003601f168201915b5050505050905090565b5f61026b3384846103b6565b5060015b92915050565b5f336102828582856103c8565b61028d858585610443565b506001949350505050565b6060600580546101de906107b0565b5f546001600160a01b031633146102fb5760405162461bcd60e51b815260206004820152601360248201527221b0b63632b91034b9903737ba1037bbb732b960691b60448201526064015b60405180910390fd5b6001600160a01b0381166103515760405162461bcd60e51b815260206004820152601d60248201527f4e6577206f776e657220697320746865207a65726f206164647265737300000060448201526064016102f2565b5f80546040516001600160a01b03808516939216917f342827c97908e5e2f71151c08502a66d44b6f758e3ac2f1de95f02eb95f0a73591a35f80546001600160a01b0319166001600160a01b0392909216919091179055565b5f61026b338484610443565b6103c383838360016104a0565b505050565b6001600160a01b038381165f908152600260209081526040808320938616835292905220545f19811461043d578181101561042f5760405163808463d160e01b81526001600160a01b038416600482015260248101829052604481018390526064016102f2565b61043d84848484035f6104a0565b50505050565b6001600160a01b03831661046c576040516344592f1f60e11b81525f60048201526024016102f2565b6001600160a01b03821661049557604051638702316d60e01b81525f60048201526024016102f2565b6103c3838383610572565b6001600160a01b0384166104c957604051631e431edf60e01b81525f60048201526024016102f2565b6001600160a01b0383166104f25760405163503ab6af60e01b81525f60048201526024016102f2565b6001600160a01b038085165f908152600260209081526040808320938716835292905220829055801561043d57826001600160a01b0316846001600160a01b03167f8c5be1e5ebec7d5bd14f71427d1e84f3dd0314c0f7b2291e5b200ac8c7c3b9258460405161056491815260200190565b60405180910390a350505050565b6001600160a01b03831661059c578060035f82825461059191906107e8565b9091555061060c9050565b6001600160a01b0383165f90815260016020526040902054818110156105ee5760405163d79d596760e01b81526001600160a01b038516600482015260248101829052604481018390526064016102f2565b6001600160a01b0384165f9081526001602052604090209082900390555b6001600160a01b03821661062857600380548290039055610646565b6001600160a01b0382165f9081526001602052604090208054820190555b816001600160a01b0316836001600160a01b03167fddf252ad1be2c89b69c2b068fc378daa952ba7f163c4a11628f55a4df523b3ef8360405161068b91815260200190565b60405180910390a3505050565b5f6020808352835180828501525f5b818110156106c3578581018301518582016040015282016106a7565b505f604082860101526040601f19601f8301168501019250505092915050565b80356001600160a01b03811681146106f9575f80fd5b919050565b5f806040838503121561070f575f80fd5b610718836106e3565b946020939093013593505050565b5f805f60608486031215610738575f80fd5b610741846106e3565b925061074f602085016106e3565b9150604084013590509250925092565b5f6020828403121561076f575f80fd5b610778826106e3565b9392505050565b5f8060408385031215610790575f80fd5b610799836106e3565b91506107a7602084016106e3565b90509250929050565b600181811c908216806107c457607f821691505b6020821081036107e257634e487b7160e01b5f52602260045260245ffd5b50919050565b8082018082111561026f57634e487b7160e01b5f52601160045260245ffdfea2646970667358221220435941e1a0c8515f4ef5af9ab824ec5154e30a0f0c4bd34b990fdb0ca7fed60164736f6c63430008140033",
  "source": "// SPDX-License-Identifier: MIT\r\npragma solidity >=0.8.18 <0.8.28;\r\n\r\nimport {ITRC20} from \"./ITRC20.sol\";\r\nimport {ITRC20Metadata} from \"./ITRC20Metadata.sol\";\r\nimport {Context} from \"./../utils/Context.sol\";\r\nimport {Owner} from \"./../utils/Owner.sol\";\r\nimport {ITRC20Errors} from \"./ITRC20Errors.sol\";\r\n\r\ncontract TRC20 is Context, Owner, ITRC20, ITRC20Metadata, ITRC20Errors {\r\n    mapping(address => uint256) private _balances;\r\n    mapping(address => mapping(address => uint256)) private _allowances;\r\n    uint256 private _totalSupply;\r\n    string private _name;\r\n    string private _symbol;\r\n    uint8 private _decimals;\r\n\r\n    constructor(string memory name_, string memory symbol_, uint8 decimals_) {\r\n        _name = name_;\r\n        _symbol = symbol_;\r\n        _decimals = decimals_;\r\n    }\r\n\r\n    // --- ITRC20Metadata implementation ---\r\n    function name() public view override returns (string memory) {\r\n        return _name;\r\n    }\r\n\r\n    function symbol() public view override returns (string memory) {\r\n        return _symbol;\r\n    }\r\n\r\n    function decimals() public view override returns (uint8) {\r\n        return _decimals;\r\n    }\r\n\r\n    // --- ITRC20 implementation ---\r\n    function totalSupply() public view override returns (uint256) {\r\n        return _totalSupply;\r\n    }\r\n\r\n    function balanceOf(address account) public view override returns (uint256) {\r\n        return _balances[account];\r\n    }\r\n\r\n    function transfer(address recipient, uint256 amount) public override returns (bool) {\r\n        _transfer(_msgSender(), recipient, amount);\r\n        return true;\r\n    }\r\n\r\n    function allowance(address owner_, address spender) public view override returns (uint256) {\r\n        return _allowances[owner_][spender];\r\n    }\r\n\r\n    function approve(address spender, uint256 amount) public override returns (bool) {\r\n        _approve(_msgSender(), spender, amount);\r\n        return true;\r\n    }\r\n\r\n    function transferFrom(address from, address to, uint256 value) public virtual returns (bool) {\r\n        address spender = _msgSender();\r\n        _spendAllowance(from, spender, value);\r\n        _transfer(from, to, value);\r\n        return true;\r\n    }\r\n\r\n    // --- Internal functions ---\r\n    function _transfer(address from, address to, uint256 value) internal {\r\n        if (from == address(0)) {\r\n            revert TRC20InvalidSender(address(0));\r\n        }\r\n        if (to == address(0)) {\r\n            revert TRC20InvalidReceiver(address(0));\r\n        }\r\n        _update(from, to, value);\r\n    }\r\n\r\n    function _approve(address owner, address spender, uint256 value) internal {\r\n        _approve(owner, spender, value, true);\r\n    }\r\n\r\n    function _approve(\r\n        address owner, \r\n        address spender, \r\n        uint256 value, \r\n        bool emitEvent\r\n        ) internal virtual {\r\n        if (owner == address(0)) {\r\n            revert TRC20InvalidApprover(address(0));\r\n        }\r\n        if (spender == address(0)) {\r\n            revert TRC20InvalidSpender(address(0));\r\n        }\r\n        _allowances[owner][spender] = value;\r\n        if (emitEvent) {\r\n            emit Approval(owner, spender, value);\r\n        }\r\n    }\r\n\r\n    function _spendAllowance(address owner, address spender, uint256 value) internal virtual {\r\n        uint256 currentAllowance = allowance(owner, spender);\r\n        if (currentAllowance != type(uint256).max) {\r\n            if (currentAllowance < value) {\r\n                revert TRC20InsufficientAllowance(spender, currentAllowance, value);\r\n            }\r\n            unchecked {\r\n                _approve(owner, spender, currentAllowance - value, false);\r\n            }\r\n        }\r\n    }\r\n\r\n    function _update(address from, address to, uint256 value) internal virtual {\r\n        if (from == address(0)) {\r\n            _totalSupply += value;\r\n        } else {\r\n            uint256 fromBalance = _balances[from];\r\n            if (fromBalance < value) {\r\n                revert TRC20InsufficientBalance(from, fromBalance, value);\r\n            }\r\n            unchecked {\r\n                _balances[from] = fromBalance - value;\r\n            }\r\n        }\r\n\r\n        if (to == address(0)) {\r\n            unchecked {\r\n                _totalSupply -= value;\r\n            }\r\n        } else {\r\n            unchecked {\r\n                _balances[to] += value;\r\n            }\r\n        }\r\n\r\n        emit Transfer(from, to, value);\r\n    }\r\n\r\n    function _mint(address account, uint256 value) isOwner() internal {\r\n        if (account == address(0)) {\r\n            revert TRC20InvalidReceiver(address(0));\r\n        }\r\n        _update(address(0), account, value);\r\n    }\r\n\r\n    function _burn(address account, uint256 value) isOwner() internal {\r\n        if (account == address(0)) {\r\n            revert TRC20InvalidSender(address(0));\r\n        }\r\n        _update(account, address(0), value);\r\n    }\r\n}",
  "sourcePath": "C:\\Users\\Ankit Kumar\\Desktop\\Radix\\XTech\\contracts\\trc20\\TRC20.sol",
  "compiler": {
    "name": "solc",
    "version": "0.8.20+commit.a1b79de6.Emscripten.clang"
  },
  "schemaVersion": "2.0.1",
  "updatedAt": "2024-10-06T16:11:58.707Z"
}