{
  "contractName": "XMarketCoin",
  "abi": [
    {
      "inputs": [],
      "stateMutability": "nonpayable",
      "type": "constructor"
    },
    {
      "inputs": [
        {
          "internalType": "address",
          "name": "spender",
          "type": "address"
        },
        {
          "internalType": "uint256",
          "name": "allowance",
          "type": "uint256"
        },
        {
          "internalType": "uint256",
          "name": "needed",
          "type": "uint256"
        }
      ],
      "name": "TRC20InsufficientAllowance",
      "type": "error"
    },
    {
      "inputs": [
        {
          "internalType": "address",
          "name": "sender",
          "type": "address"
        },
        {
          "internalType": "uint256",
          "name": "balance",
          "type": "uint256"
        },
        {
          "internalType": "uint256",
          "name": "needed",
          "type": "uint256"
        }
      ],
      "name": "TRC20InsufficientBalance",
      "type": "error"
    },
    {
      "inputs": [
        {
          "internalType": "address",
          "name": "approver",
          "type": "address"
        }
      ],
      "name": "TRC20InvalidApprover",
      "type": "error"
    },
    {
      "inputs": [
        {
          "internalType": "address",
          "name": "receiver",
          "type": "address"
        }
      ],
      "name": "TRC20InvalidReceiver",
      "type": "error"
    },
    {
      "inputs": [
        {
          "internalType": "address",
          "name": "sender",
          "type": "address"
        }
      ],
      "name": "TRC20InvalidSender",
      "type": "error"
    },
    {
      "inputs": [
        {
          "internalType": "address",
          "name": "spender",
          "type": "address"
        }
      ],
      "name": "TRC20InvalidSpender",
      "type": "error"
    },
    {
      "anonymous": false,
      "inputs": [
        {
          "indexed": true,
          "internalType": "address",
          "name": "owner",
          "type": "address"
        },
        {
          "indexed": true,
          "internalType": "address",
          "name": "spender",
          "type": "address"
        },
        {
          "indexed": false,
          "internalType": "uint256",
          "name": "value",
          "type": "uint256"
        }
      ],
      "name": "Approval",
      "type": "event"
    },
    {
      "anonymous": false,
      "inputs": [
        {
          "indexed": true,
          "internalType": "address",
          "name": "oldOwner",
          "type": "address"
        },
        {
          "indexed": true,
          "internalType": "address",
          "name": "newOwner",
          "type": "address"
        }
      ],
      "name": "OwnerSet",
      "type": "event"
    },
    {
      "anonymous": false,
      "inputs": [
        {
          "indexed": true,
          "internalType": "address",
          "name": "from",
          "type": "address"
        },
        {
          "indexed": true,
          "internalType": "address",
          "name": "to",
          "type": "address"
        },
        {
          "indexed": false,
          "internalType": "uint256",
          "name": "value",
          "type": "uint256"
        }
      ],
      "name": "Transfer",
      "type": "event"
    },
    {
      "inputs": [
        {
          "internalType": "address",
          "name": "owner_",
          "type": "address"
        },
        {
          "internalType": "address",
          "name": "spender",
          "type": "address"
        }
      ],
      "name": "allowance",
      "outputs": [
        {
          "internalType": "uint256",
          "name": "",
          "type": "uint256"
        }
      ],
      "stateMutability": "view",
      "type": "function"
    },
    {
      "inputs": [
        {
          "internalType": "address",
          "name": "spender",
          "type": "address"
        },
        {
          "internalType": "uint256",
          "name": "amount",
          "type": "uint256"
        }
      ],
      "name": "approve",
      "outputs": [
        {
          "internalType": "bool",
          "name": "",
          "type": "bool"
        }
      ],
      "stateMutability": "nonpayable",
      "type": "function"
    },
    {
      "inputs": [
        {
          "internalType": "address",
          "name": "account",
          "type": "address"
        }
      ],
      "name": "balanceOf",
      "outputs": [
        {
          "internalType": "uint256",
          "name": "",
          "type": "uint256"
        }
      ],
      "stateMutability": "view",
      "type": "function"
    },
    {
      "inputs": [
        {
          "internalType": "address",
          "name": "newOwner",
          "type": "address"
        }
      ],
      "name": "changeOwner",
      "outputs": [],
      "stateMutability": "nonpayable",
      "type": "function"
    },
    {
      "inputs": [],
      "name": "decimals",
      "outputs": [
        {
          "internalType": "uint8",
          "name": "",
          "type": "uint8"
        }
      ],
      "stateMutability": "view",
      "type": "function"
    },
    {
      "inputs": [],
      "name": "getOwner",
      "outputs": [
        {
          "internalType": "address",
          "name": "",
          "type": "address"
        }
      ],
      "stateMutability": "view",
      "type": "function"
    },
    {
      "inputs": [],
      "name": "name",
      "outputs": [
        {
          "internalType": "string",
          "name": "",
          "type": "string"
        }
      ],
      "stateMutability": "view",
      "type": "function"
    },
    {
      "inputs": [],
      "name": "symbol",
      "outputs": [
        {
          "internalType": "string",
          "name": "",
          "type": "string"
        }
      ],
      "stateMutability": "view",
      "type": "function"
    },
    {
      "inputs": [],
      "name": "totalSupply",
      "outputs": [
        {
          "internalType": "uint256",
          "name": "",
          "type": "uint256"
        }
      ],
      "stateMutability": "view",
      "type": "function"
    },
    {
      "inputs": [
        {
          "internalType": "address",
          "name": "recipient",
          "type": "address"
        },
        {
          "internalType": "uint256",
          "name": "amount",
          "type": "uint256"
        }
      ],
      "name": "transfer",
      "outputs": [
        {
          "internalType": "bool",
          "name": "",
          "type": "bool"
        }
      ],
      "stateMutability": "nonpayable",
      "type": "function"
    },
    {
      "inputs": [
        {
          "internalType": "address",
          "name": "from",
          "type": "address"
        },
        {
          "internalType": "address",
          "name": "to",
          "type": "address"
        },
        {
          "internalType": "uint256",
          "name": "value",
          "type": "uint256"
        }
      ],
      "name": "transferFrom",
      "outputs": [
        {
          "internalType": "bool",
          "name": "",
          "type": "bool"
        }
      ],
      "stateMutability": "nonpayable",
      "type": "function"
    }
  ],
  "bytecode": "0x608060405234801562000010575f80fd5b50604080518082018252600b81526a2c26b0b935b2ba21b7b4b760a91b602080830191909152825180840184526003815262584d4360e81b918101919091525f80546001600160a01b03191633908117825593519293919260129291907f342827c97908e5e2f71151c08502a66d44b6f758e3ac2f1de95f02eb95f0a735908290a36004620000a084826200034d565b506005620000af83826200034d565b506006805460ff191660ff9290921691909117905550620000dd90503369d3c21bcecceda1000000620000e3565b6200043b565b5f546001600160a01b03163314620001425760405162461bcd60e51b815260206004820152601360248201527f43616c6c6572206973206e6f74206f776e65720000000000000000000000000060448201526064015b60405180910390fd5b6001600160a01b0382166200016d57604051638702316d60e01b81525f600482015260240162000139565b6200017a5f83836200017e565b5050565b6001600160a01b038316620001ac578060035f828254620001a0919062000415565b909155506200021e9050565b6001600160a01b0383165f9081526001602052604090205481811015620002005760405163d79d596760e01b81526001600160a01b0385166004820152602481018290526044810183905260640162000139565b6001600160a01b0384165f9081526001602052604090209082900390555b6001600160a01b0382166200023c576003805482900390556200025a565b6001600160a01b0382165f9081526001602052604090208054820190555b816001600160a01b0316836001600160a01b03167fddf252ad1be2c89b69c2b068fc378daa952ba7f163c4a11628f55a4df523b3ef83604051620002a091815260200190565b60405180910390a3505050565b634e487b7160e01b5f52604160045260245ffd5b600181811c90821680620002d657607f821691505b602082108103620002f557634e487b7160e01b5f52602260045260245ffd5b50919050565b601f82111562000348575f81815260208120601f850160051c81016020861015620003235750805b601f850160051c820191505b8181101562000344578281556001016200032f565b5050505b505050565b81516001600160401b03811115620003695762000369620002ad565b62000381816200037a8454620002c1565b84620002fb565b602080601f831160018114620003b7575f84156200039f5750858301515b5f19600386901b1c1916600185901b17855562000344565b5f85815260208120601f198616915b82811015620003e757888601518255948401946001909101908401620003c6565b50858210156200040557878501515f19600388901b60f8161c191681555b5050505050600190811b01905550565b808201808211156200043557634e487b7160e01b5f52601160045260245ffd5b92915050565b61083d80620004495f395ff3fe608060405234801561000f575f80fd5b50600436106100a6575f3560e01c806370a082311161006e57806370a0823114610125578063893d20e81461014d57806395d89b4114610167578063a6f9dae11461016f578063a9059cbb14610184578063dd62ed3e14610197575f80fd5b806306fdde03146100aa578063095ea7b3146100c857806318160ddd146100eb57806323b872dd146100fd578063313ce56714610110575b5f80fd5b6100b26101cf565b6040516100bf9190610698565b60405180910390f35b6100db6100d63660046106fe565b61025f565b60405190151581526020016100bf565b6003545b6040519081526020016100bf565b6100db61010b366004610726565b610275565b60065460405160ff90911681526020016100bf565b6100ef61013336600461075f565b6001600160a01b03165f9081526001602052604090205490565b5f546040516001600160a01b0390911681526020016100bf565b6100b2610298565b61018261017d36600461075f565b6102a7565b005b6100db6101923660046106fe565b6103aa565b6100ef6101a536600461077f565b6001600160a01b039182165f90815260026020908152604080832093909416825291909152205490565b6060600480546101de906107b0565b80601f016020809104026020016040519081016040528092919081815260200182805461020a906107b0565b80156102555780601f1061022c57610100808354040283529160200191610255565b820191905f5260205f20905b81548152906001019060200180831161023857829003601f168201915b5050505050905090565b5f61026b3384846103b6565b5060015b92915050565b5f336102828582856103c8565b61028d858585610443565b506001949350505050565b6060600580546101de906107b0565b5f546001600160a01b031633146102fb5760405162461bcd60e51b815260206004820152601360248201527221b0b63632b91034b9903737ba1037bbb732b960691b60448201526064015b60405180910390fd5b6001600160a01b0381166103515760405162461bcd60e51b815260206004820152601d60248201527f4e6577206f776e657220697320746865207a65726f206164647265737300000060448201526064016102f2565b5f80546040516001600160a01b03808516939216917f342827c97908e5e2f71151c08502a66d44b6f758e3ac2f1de95f02eb95f0a73591a35f80546001600160a01b0319166001600160a01b0392909216919091179055565b5f61026b338484610443565b6103c383838360016104a0565b505050565b6001600160a01b038381165f908152600260209081526040808320938616835292905220545f19811461043d578181101561042f5760405163808463d160e01b81526001600160a01b038416600482015260248101829052604481018390526064016102f2565b61043d84848484035f6104a0565b50505050565b6001600160a01b03831661046c576040516344592f1f60e11b81525f60048201526024016102f2565b6001600160a01b03821661049557604051638702316d60e01b81525f60048201526024016102f2565b6103c3838383610572565b6001600160a01b0384166104c957604051631e431edf60e01b81525f60048201526024016102f2565b6001600160a01b0383166104f25760405163503ab6af60e01b81525f60048201526024016102f2565b6001600160a01b038085165f908152600260209081526040808320938716835292905220829055801561043d57826001600160a01b0316846001600160a01b03167f8c5be1e5ebec7d5bd14f71427d1e84f3dd0314c0f7b2291e5b200ac8c7c3b9258460405161056491815260200190565b60405180910390a350505050565b6001600160a01b03831661059c578060035f82825461059191906107e8565b9091555061060c9050565b6001600160a01b0383165f90815260016020526040902054818110156105ee5760405163d79d596760e01b81526001600160a01b038516600482015260248101829052604481018390526064016102f2565b6001600160a01b0384165f9081526001602052604090209082900390555b6001600160a01b03821661062857600380548290039055610646565b6001600160a01b0382165f9081526001602052604090208054820190555b816001600160a01b0316836001600160a01b03167fddf252ad1be2c89b69c2b068fc378daa952ba7f163c4a11628f55a4df523b3ef8360405161068b91815260200190565b60405180910390a3505050565b5f6020808352835180828501525f5b818110156106c3578581018301518582016040015282016106a7565b505f604082860101526040601f19601f8301168501019250505092915050565b80356001600160a01b03811681146106f9575f80fd5b919050565b5f806040838503121561070f575f80fd5b610718836106e3565b946020939093013593505050565b5f805f60608486031215610738575f80fd5b610741846106e3565b925061074f602085016106e3565b9150604084013590509250925092565b5f6020828403121561076f575f80fd5b610778826106e3565b9392505050565b5f8060408385031215610790575f80fd5b610799836106e3565b91506107a7602084016106e3565b90509250929050565b600181811c908216806107c457607f821691505b6020821081036107e257634e487b7160e01b5f52602260045260245ffd5b50919050565b8082018082111561026f57634e487b7160e01b5f52601160045260245ffdfea264697066735822122020c61ac98880ba534adabcc6da4b0a4bede961bfdbd4eab76b2844dbf0b2bb5964736f6c63430008140033",
  "source": "// SPDX-License-Identifier: MIT\r\npragma solidity >=0.8.18 <0.8.28;\r\n\r\nimport {TRC20} from \"./trc20/TRC20.sol\";\r\n\r\ncontract XMarketCoin is TRC20 {\r\n    uint256 private constant INITIAL_SUPPLY = 1000000 * (10 ** 18);\r\n\r\n    constructor() TRC20(\"XMarketCoin\", \"XMC\", 18) {\r\n        _mint(msg.sender, INITIAL_SUPPLY);\r\n    }\r\n}\r\n",
  "sourcePath": "C:/Users/Ankit Kumar/Desktop/Radix/XTech/contracts/XMarketCoin.sol",
  "compiler": {
    "name": "solc",
    "version": "0.8.20+commit.a1b79de6.Emscripten.clang"
  },
  "schemaVersion": "2.0.1",
  "updatedAt": "2024-10-06T16:12:04.667Z"
}